:020000040800F2
:10000000701900209D010008130300080F03000869
:100010001103000809020008490800080000000058
:1000200000000000000000000000000005010008C2
:100030000B02000800000000490100085D050008EF
:10004000B7010008B7010008B7010008B7010008B0
:10005000B7010008B7010008B7010008B7010008A0
:10006000B7010008B7010008B7010008B701000890
:10007000B7010008B7010008B7010008B701000880
:10008000B7010008B7010008B7010008B701000870
:10009000B7010008B7010008B7010008B701000860
:1000A000B7010008B7010008B7010008B701000850
:1000B000B7010008B7010008B7010008B701000840
:1000C000B7010008B7010008B7010008B701000830
:1000D000B7010008B7010008B7010008B701000820
:1000E0000D020008B7010008B7010008DFF810D0C2
:1000F00000F078F80048004719090008AFF30080C5
:1001000070190020224B19680868B0E8F00F80F3DE
:100110000988BFF36F8F4FF0000080F311884EF015
:100120000D0E70470000000006480068006880F36C
:10013000088862B661B6BFF34F8FBFF36F8F00DFE1
:1001400000BF00BF08ED00E0EFF30980BFF36F8F41
:100150000F4B1A6820E9F00F106008B54FF0A000AF
:1001600080F31188BFF34F8FBFF36F8F01F018F842
:100170004FF0000080F31188BDE808401968086856
:10018000B0E8F00F80F30988BFF36F8F704700BFAE
:1001900044000020EFF305807047000006488047C8
:1001A00006480047FEE7FEE7FEE7FEE7FEE7FEE75C
:1001B000FEE7FEE7FEE7FEE789050008ED00000820
:1001C000D2B201E000F8012B491EFBD27047002299
:1001D000F6E710B513460A4604461946FFF7F0FF46
:1001E000204610BD064C074D06E0E06840F00103D4
:1001F00094E8070098471034AC42F6D3FFF77AFF33
:10020000F814000818150008FEE7704710B54FF401
:100210008054204600F018F801280CD106480188C7
:10022000491C01804FF4967000F05CFB2046BDE84D
:10023000104000F003B810BD2800002001490860FC
:10024000704700001404014001460020054A12686E
:100250000A40044B14331B680B4202D0002A00D022
:1002600001207047000401402DE9F0410022CC78C4
:1002700004F00F03E40601D58C7823430C784FF08B
:100280000F0714F0FF0F4FF0010C1CD005680CFA9B
:1002900002F40E882640A64211D1960007FA06F80D
:1002A00025EA080503FA06F848EA0505CE78282E5F
:1002B00002D0482E02D002E0446100E00461521CEA
:1002C000082AE4D305600A88FF2A1ED9456800225F
:1002D00002F108060CFA06F40E882640A64210D158
:1002E000960007FA06F825EA080503FA06F848EA30
:1002F0000505CE78282E00D14461CE78482E00D155
:100300000461521C082AE3D34560BDE8F081FEE792
:10031000FEE7704770B50F23C27801260178002AE6
:100320001ED0144A126802F4E062C2F5E062120ABA
:10033000C2F10404D3404578A54082781A402A438C
:10034000120101F1E02181F80024007800F01F0182
:100350008E404009800000F1E020C0F8006170BDCF
:1003600001F01F0086404809800000F1E020C0F83D
:10037000806170BD0CED00E002490843024908604D
:10038000704700000000FA050CED00E0054A002966
:1003900003D01169014311617047116981431161F3
:1003A0007047000000100240054A002903D09169FF
:1003B00001439161704791698143916170470000E9
:1003C00000100240054A002903D0D1680143D160E2
:1003D0007047D1688143D16070470000001002402F
:1003E00010B5264A516801F00C01254B002927D091
:1003F000042927D0082927D00360516801F0F001B3
:100400000909204B5C5C0168E1404160546804F4D8
:10041000E064240A1C5D21FA04F48460546804F446
:100420006054E40A1B5DD940C160526802F4404246
:10043000920B144B1B1F9A5CB1FBF2F1016110BDD2
:100440000360DAE70360D8E7516801F4701153687C
:1004500003F48033022404EB914133B153689B03CE
:1004600007D5094B59430160C7E7074B5943016062
:10047000C3E7034B59430160BFE70000001002408F
:1004800000127A001800002000093D00AFF3008040
:100490000CB50022019200922748016841F4803196
:1004A00001604FF4A063016801F4003100910199EB
:1004B000491C0191009911B901999942F3D1016840
:1004C000890302D50121009100E0009200990129E1
:1004D00030D11A490A6842F010020A600A6822F014
:1004E00007020A600A6842F002020A60416841603D
:1004F00041684160416841F480614160416821F494
:100500007C114160416841F4E8114160016841F0AB
:100510008071016001688901FCD5416821F0030107
:100520004160416841F0020141604168C1F38101CD
:100530000229FAD10CBD0000001002400020024048
:100540004FF0E021042804D0086920F0040008617D
:100550007047086940F004000861704710B5A0209A
:1005600080F31188BFF34F8FBFF36F8F00F098FEB9
:1005700018B104494FF080500860002080F31188C2
:1005800010BD000004ED00E010B50F48016841F017
:100590000101016041680D4A1140416001680C4A47
:1005A00011400160016821F480210160416821F45B
:1005B000FE0141604FF41F018160FFF767FF0549AD
:1005C0004FF00060086010BD001002400000FFF80E
:1005D000FFFFF6FE08ED00E0002904D0818941F418
:1005E000005181817047818921F4005181817047D8
:1005F00010B5234988420AD101218C032046FFF718
:10060000E1FE2046BDE810400021FFF7DBBE1D499A
:1006100088420AD101214C042046FFF7B7FE20464C
:10062000BDE810400021FFF7B1BE174988420AD14A
:1006300001218C042046FFF7A9FE2046BDE81040AA
:100640000021FFF7A3BE114988420AD10121CC0441
:100650002046FFF79BFE2046BDE810400021FFF733
:1006600095BE0B4988420AD101210C052046FFF7AF
:100670008DFE2046BDE810400021FFF787BE10BD6B
:10068000003801400044004000480040004C004059
:10069000005000400246002012880A4200D001208B
:1006A000704710B540F66A13C1F3421301F01F04FE
:1006B0000121A140012B07D0022B07D014303AB101
:1006C00002680A43026010BD0C30F8E71030F6E70C
:1006D00002688A43026010BD30B585B004460D46FD
:1006E000208A4CF6FF710840E98801432182A089E5
:1006F0004EF6F3110840A9882A8911436A890243FA
:100700001143A181A08A4FF6FF410840A989014306
:10071000A1826846FFF764FE1D48844201D1039818
:1007200000E00298A189090408D500EBC00101EBA3
:10073000001029684900B0FBF1F007E000EBC001B0
:1007400001EB001029688900B0FBF1F06422B0FBD6
:10075000F2F109010B096FF018056B4300EB830000
:10076000A3891D044FF0320307D503EBC000B0FB93
:10077000F2F000F00700084306E003EB0010B0FBC6
:10078000F2F000F00F000843208105B030BD0000FA
:1007900000380140C1F308018180704770B586B010
:1007A0000446012144F20500FFF7FEFD4FF40070FE
:1007B000ADF8140018208DF8170001258DF816509B
:1007C0001F4E05A93046FFF74FFDA802ADF81400F3
:1007D00004208DF8170005A93046FFF745FD194E96
:1007E0003046FFF705FF01940024ADF80840ADF84E
:1007F0000A40ADF80C40ADF810400C20ADF80E00EA
:1008000001A93046FFF768FF012240F2255130462A
:10081000FFF747FF01213046FFF7DEFE4FF4E060AF
:10082000FFF7AAFD25208DF800008DF801508DF806
:1008300002408DF803506846FFF76CFD06B070BDAE
:100840000008014000380140FEE710B5044620468C
:10085000FFF7A0FF80212046FFF71CFF0028F9D0FA
:1008600010BD70B506460D4600243046295DFFF7E1
:10087000ECFF641C285D0028F7D140213046FFF7CB
:1008800009FF0028F9D070BD02E008C8121F08C196
:10089000002AFAD170477047002001E001C1121F01
:1008A000002AFBD17047000010B56FF00400FFF77D
:1008B00047FE094809490068B0FBF1F00849C0B299
:1008C000087000EB4002C2EBC0104FF6FF7202EA64
:1008D000C000488010BD00000000002000127A0017
:1008E0002A0000200B49498848434FF0E021486125
:1008F00000238B61086940F0010008610869C207A4
:1009000001D0C003FAD5086920F0010008618B61AD
:10091000704700002A0000201CB5FFF7C5FF4FF408
:10092000E130FFF73BFF4FF44070FFF725FD194C16
:1009300011A12046FFF795FF4FF4FA752846FFF7FF
:10094000D1FF15490122CDE900210023802213A106
:10095000154800F071FC15A12046FFF782FF2846DC
:10096000FFF7C0FF00F0CAFB18A12046FFF779FF90
:100970002846FFF7B7FFFEE7496E697469616C6945
:100980007A6174696F6E20697320646F6E652E0DD5
:100990000A000000003801403800002073746172C2
:1009A000745F7461736B0000F50D00084265666F3B
:1009B0007265205374617274207468652073636873
:1009C0006564756C65722E0D0A00000053746172C7
:1009D0007420746865207363686564756C65722E35
:1009E0000D0A00002DE9F04104460F461E4DEE6849
:1009F0002868001D00F086FA38B9286890F82C1095
:100A000001208840296981432961601C15D1A7B163
:100A1000164948682A68906082682B68DA602A68FC
:100A20008368121D5A602A68121D8260286841611D
:100A30000868401C0860BDE8F081344428684460C0
:100A4000B44206D22968E86B091DBDE8F04100F008
:100A50007ABA2968A86B091D00F075FAA86A844261
:100A6000E9D2AC62E7E70000440000205801002012
:100A700070B5044600F08CFA254DA868401CA860AB
:100A8000286810B1686938B10CE02C60A8680128AA
:100A900008D100F0E3F805E02868E16AC06A8842FE
:100AA00000D82C60686A401C68626064E06A0121BA
:100AB0002A69814011432961164A00EB800002EB4C
:100AC00080004068A0608168E1608368211D5960F2
:100AD0008160E06A00EB800002EB8001616152F806
:100AE0002010491C42F8201000F060FA68690028C4
:100AF0000CD02868E16AC06A884207D206494FF0E4
:100B000080500860BFF34F8FBFF36F8F70BD000040
:100B100044000020A400002004ED00E070B50C4D5E
:100B20000C4E11E000F034FAF068C468201D00F0AB
:100B3000E9F9A868401EA8606868401E686000F077
:100B400035FA204600F008F868680028EAD170BD40
:100B5000440000204401002010B50446206B00F042
:100B600031FA2046BDE8104000F02CBA4FF4A051F5
:100B70000E48420706D0C01D20F007000B49411A5D
:100B8000C1F5A0510A4B186000225A60014408398F
:100B900021F00701143B19604A600A600A1A42609A
:100BA0000160406898605860704700006C01002048
:100BB00098000020074E4FF08054074DFFF7AEFF1E
:100BC00030680128FAD92C60BFF34F8FBFF36F8FC5
:100BD000F4E70000A400002004ED00E02DE9F04758
:100BE0008146DDE908670A9C0D4690469A464FEA21
:100BF0008801A522206BFFF7E3FA206BA8F101081A
:100C000000EB880020F0070865B100202218295C5D
:100C100082F83410295C11B1401C1028F6D3002052
:100C200084F84300052E00D30426E662201D00F060
:100C300087F904F1180000F083F92461C6F105007A
:100C4000A061646252464946404600F0C5F8206003
:100C5000002F00D03C60BDE8F087000070B5002494
:100C6000124D04EB840005EB800000F05EF9641C7B
:100C7000052CF6D30D48643000F057F90B48783056
:100C800000F053F909488C3000F04FF90748A030C4
:100C900000F04BF90548B43000F047F90349044827
:100CA000643181631431C16370BD0000A400002071
:100CB0004400002030B5134900E011460A68824222
:100CC000FBD34B685C18844203D1406818444860E9
:100CD00008460D6844682318AB420DD1094B143BFC
:100CE0001B689A4206D05268224442600A68126821
:100CF000026002E0036000E00260814200D0086010
:100D000030BD0000980000200648816B096800296A
:100D100004D0816BC9680968816270474FF0FF3168
:100D20008162704744000020A02080F31188BFF347
:100D30004F8FBFF36F8FFEE72DE9F0410546002688
:100D400000F026FA234F386808B9FFF70FFF4DB1BE
:100D500005F00700C0F11000C1438D4201D80544E1
:100D600000E00025002D2FDD786885422CD8194938
:100D700014310846046801E0214604466068A84230
:100D800002D220680028F7D1386884421CD00E684F
:100D90000836206808606068411B102904D9601972
:100DA00041606560FFF786FF61687868401A786087
:100DB000BA68904200D2B86041F000406060002004
:100DC0002060F868401CF86000F0F8FA3046BDE892
:100DD000F08100008400002020384FF08073C36150
:100DE00021F0010181610249416140F820297047E9
:100DF000290D00087CB500F0CBF817480221CDE999
:100E00000010A0F10C04802214A11648236800F001
:100E100013FA04F110000321CDE90010802212A181
:100E20001348636800F008FA174D12A12846FFF72F
:100E300018FD4FF4FA763046FFF754FDA06800F035
:100E40000FF912A12846FFF70CFD3046FFF74AFDC7
:100E5000BDE87C4000F0AAB83C0000207461736BD0
:100E600031000000A50E00087461736B32000000B1
:100E7000D50E0008496E207374617274207461731A
:100E80006B2E0D0A000000000038014044656C65BF
:100E90007465207374617274207461736B2E0D0A13
:100EA000000000000546094C29462046FFF7D9FC02
:100EB0006420FFF717FD06A12046FFF7D2FC64204F
:100EC000FFF710FDC82000F0B1F8EDE70038014051
:100ED0000D0A00000546094C29462046FFF7C1FCD3
:100EE0006420FFF7FFFC06A12046FFF7BAFC642050
:100EF000FFF7F8FCC82000F099F8EDE70038014052
:100F00000D0A00000169D0E901329A60D0E901239D
:100F10005A604A68824201D182684A6000220261B6
:100F20000868401E08600868704700F108014160C9
:100F30004FF0FF328260C1600161002101607047A3
:100F400000210161704730B50C68621C02D000F1CD
:100F5000080202E0026904E01A4653681D68A542CF
:100F6000FAD953684B6099608A60516008610168E2
:100F7000491C016030BD42684A6093688B60936889
:100F80005960916008610168491C01607047000068
:100F9000A02080F31188BFF34F8FBFF36F8F0248FB
:100FA0000168491C01607047A000002004490868DE
:100FB000401E0860002801D180F3118870470000AE
:100FC000A000002070B500281BD0083804466068D7
:100FD000002816DA2168002913D120F00040606053
:100FE00000F0D6F8074D60686968084468602046DC
:100FF000FFF760FE2869401C2861BDE8704000F0E2
:10100000DDB970BD840000204FF0E02000210161B7
:10101000816105494FF47A720968B1FBF2F1491E0A
:1010200041610721016170470000002010B50246B0
:101030000020002A07D000F0ABF800211046FFF78F
:10104000D1FC00F0BBF9002807D104494FF08050D3
:101050000860BFF34F8FBFF36F8F10BD04ED00E04A
:1010600070B50446FFF794FF214D04B92C68201D8C
:10107000FFF748FF58B9E06A1E4A00EB800152F8BA
:10108000211021B901218140286988432861A06A83
:1010900018B104F11800FFF735FF686A401C686258
:1010A0002868844208D11348211DA030FFF763FF50
:1010B0006868401C686004E0A868401EA860FFF7EC
:1010C00023FEFFF773FF2868844202D02046FFF713
:1010D00043FD686900280AD02868844207D1064980
:1010E0004FF080500860BFF34F8FBFF36F8F70BD1C
:1010F00044000020A400002004ED00E07CB5184866
:101100000025CDE900502B46782216A1174800F0A3
:1011100093F8134C2C3C01281FD1A02080F3118898
:10112000BFF34F8FBFF36F8F4FF0FF30A0620120EE
:101130006061E560114D0EA12846FFF792FB4FF468
:10114000FA763046FFF7CEFB00F04EF80CA12846A9
:10115000FFF787FB3046FFF7C5FB206B7CBD000027
:101160007000002049444C4500000000B50B000809
:101170003120737465702E0D0A00000000380140A4
:1011800066696E616C20737465702E0D0A00000034
:101190000248416B491C4163704700004400002035
:1011A0000F4A506B002802D00120D0617047002008
:1011B000D0611069B0FA80F0C0F11F00094900EB5E
:1011C000800001EB800041684968416000F108033C
:1011D000994201D1496841604068C0681060704719
:1011E00044000020A400002010B50D48016841F41F
:1011F00070010160016841F070410160FFF704FF78
:10120000084900200860FEF78FFF07A10948FFF793
:1012100028FB4FF4FA70FFF765FB002010BD0000BB
:1012200020ED00E0A00000203420737465702E0DC6
:101230000A000000003801402DE9FF5F8146DDE92A
:101240000E788A4616469B46B000FFF775FD0546A8
:1012500028000ED05420FFF76FFD04462CB1542116
:101260002046FEF7B4FF256304E02846FFF7AAFEF8
:1012700000E000248CB10020CDE90240CDE90078E7
:101280005B46324651464846FFF7A8FC2046FFF72A
:10129000EFFB012004B0BDE8F09F4FF0FF30F9E70D
:1012A0002DE9F0410025434E706B002805D0B06950
:1012B000401CB0612846BDE8F081F468641CF4600D
:1012C00044B9B06BF16BB163F063306A401C3062BB
:1012D000FFF71AFDB06A384F84420FD34FF0000C6D
:1012E000B06B006838B1B06BC068C16848688442B0
:1012F00012D2B06202E04FF0FF30B0623068C06AD4
:1013000000EB800057F82000012800D90125F06982
:101310000028CFD00125CDE74A69D1E90230986095
:10132000D1E90203586050680B1D984201D1C8688A
:101330005060C1F814C01068401E10608A6A9AB1EB
:10134000D1E90780C8F80800D1E90708C8F8040007
:10135000506801F11808404501D1086A5060C1F891
:1013600028C01068401E1060C86A0122D6F810809C
:10137000824042EA0802326100EB800007EB800005
:1013800042688A609068C860906843609360C86AE9
:1013900000EB800007EB80024A6157F82020521CC6
:1013A00047F82020C86A3168C96A884298D901255F
:1013B00096E7000044000020A40000202DE9F04141
:1013C0000024A046FFF7E4FD3E4D686B401E6863B5
:1013D000686B002871D1A86800286ED000273A4AAF
:1013E00001264EE0D068C468A16AD4E9073098604D
:1013F000D4E9070358604B6804F11800834201D117
:10140000206A4860A7620868401E08606169D4E9E4
:1014100002309860D4E9020358604B68201D834273
:1014200001D1E3684B6067610B685B1E0B60E16A8A
:10143000D5F810C006FA01F343EA0C032B61224BE6
:1014400001EB81018C3B03EB81014968A160D1F87C
:1014500008C0C4F80CC0D1F808C0CCF804008860FB
:10146000E06A00EB800003EB8001616153F820101B
:10147000491C43F82010E06A2968C96A884200D3F1
:10148000EE6110680028ADD10CB1FFF73DFCAC69EE
:101490003CB1FFF705FF00B1EE61641E002CF8D1EE
:1014A000AF61E86948B14FF0010808494FF080503A
:1014B0000860BFF34F8FBFF36F8FFFF777FD404694
:1014C000BDE8F081440000203001002004ED00E080
:1014D0005461736B312069732072756E6E696E672B
:1014E0002E0000005461736B322069732072756E98
:1014F0006E696E672E0000001815000800000020BD
:10150000A400000088080008BC150008A400002002
:10151000CC1800009808000800A24A04000000004F
:10152000000000000102030406070809020406087F
:101530000000000001020304010203040607080979
:101540000000000000000000D0140008E4140008AF
:10155000000000000000000000000000000000008B
:10156000000000000000000000000000000000007B
:10157000000000000000000000000000000000006B
:101580000000000000000000000000000400000057
:10159000000000000000000000000000000000004B
:1015A000000000000000000000000000000000003B
:0C15B0000000000000000000AAAAAAAA87
:040000050800019D51
:00000001FF
